{
  "contractName": "Bid",
  "abi": [
    {
      "inputs": [
        {
          "name": "_name",
          "type": "string"
        },
        {
          "name": "_deadline",
          "type": "uint256"
        },
        {
          "name": "_beneficiary",
          "type": "address"
        },
        {
          "name": "_description",
          "type": "string"
        },
        {
          "name": "_url",
          "type": "string"
        }
      ],
      "payable": false,
      "stateMutability": "nonpayable",
      "type": "constructor"
    },
    {
      "anonymous": false,
      "inputs": [
        {
          "indexed": false,
          "name": "_bidder",
          "type": "address"
        },
        {
          "indexed": false,
          "name": "_amount",
          "type": "uint256"
        }
      ],
      "name": "AddBid",
      "type": "event"
    },
    {
      "constant": true,
      "inputs": [],
      "name": "bidDetails",
      "outputs": [
        {
          "name": "",
          "type": "string"
        },
        {
          "name": "",
          "type": "uint256"
        },
        {
          "name": "",
          "type": "address"
        },
        {
          "name": "",
          "type": "string"
        },
        {
          "name": "",
          "type": "string"
        },
        {
          "name": "",
          "type": "uint256"
        },
        {
          "name": "",
          "type": "uint256"
        }
      ],
      "payable": false,
      "stateMutability": "view",
      "type": "function"
    },
    {
      "constant": false,
      "inputs": [],
      "name": "addBid",
      "outputs": [],
      "payable": true,
      "stateMutability": "payable",
      "type": "function"
    },
    {
      "constant": false,
      "inputs": [],
      "name": "payout",
      "outputs": [],
      "payable": false,
      "stateMutability": "nonpayable",
      "type": "function"
    },
    {
      "constant": false,
      "inputs": [
        {
          "name": "_bidderAddr",
          "type": "address"
        }
      ],
      "name": "refund",
      "outputs": [],
      "payable": false,
      "stateMutability": "nonpayable",
      "type": "function"
    },
    {
      "constant": false,
      "inputs": [],
      "name": "disable",
      "outputs": [],
      "payable": false,
      "stateMutability": "nonpayable",
      "type": "function"
    }
  ],
  "bytecode": "0x60806040523480156200001157600080fd5b50604051620010be380380620010be833981018060405281019080805182019291906020018051906020019092919080519060200190929190805182019291906020018051820192919050505084600390805190602001906200007692919062000123565b5083420160028190555082600160006101000a81548173ffffffffffffffffffffffffffffffffffffffff021916908373ffffffffffffffffffffffffffffffffffffffff1602179055506000600860006101000a81548160ff02191690836001811115620000e157fe5b02179055508160099080519060200190620000fe92919062000123565b5080600a90805190602001906200011792919062000123565b505050505050620001d2565b828054600181600116156101000203166002900490600052602060002090601f016020900481019282601f106200016657805160ff191683800117855562000197565b8280016001018555821562000197579182015b828111156200019657825182559160200191906001019062000179565b5b509050620001a69190620001aa565b5090565b620001cf91905b80821115620001cb576000816000905550600101620001b1565b5090565b90565b610edc80620001e26000396000f30060806040526004361061006d576000357c0100000000000000000000000000000000000000000000000000000000900463ffffffff1680632f2770db146100725780634c6d299c1461008957806363bd1d4a14610239578063782a5c8214610250578063fa89401a1461025a575b600080fd5b34801561007e57600080fd5b5061008761029d565b005b34801561009557600080fd5b5061009e610413565b60405180806020018881526020018773ffffffffffffffffffffffffffffffffffffffff1673ffffffffffffffffffffffffffffffffffffffff168152602001806020018060200186815260200185815260200184810384528b818151815260200191508051906020019080838360005b8381101561012a57808201518184015260208101905061010f565b50505050905090810190601f1680156101575780820380516001836020036101000a031916815260200191505b50848103835288818151815260200191508051906020019080838360005b83811015610190578082015181840152602081019050610175565b50505050905090810190601f1680156101bd5780820380516001836020036101000a031916815260200191505b50848103825287818151815260200191508051906020019080838360005b838110156101f65780820151818401526020810190506101db565b50505050905090810190601f1680156102235780820380516001836020036101000a031916815260200191505b509a505050505050505050505060405180910390f35b34801561024557600080fd5b5061024e61063e565b005b6102586107d7565b005b34801561026657600080fd5b5061029b600480360381019080803573ffffffffffffffffffffffffffffffffffffffff169060200190929190505050610bc7565b005b60025442111515610316576040517f08c379a00000000000000000000000000000000000000000000000000000000081526004018080602001828103825260208152602001807f426964206861736e277420726561636865642074686520646561646c696e652e81525060200191505060405180910390fd5b60018081111561032257fe5b600860009054906101000a900460ff16600181111561033d57fe5b1415156103d8576040517f08c379a00000000000000000000000000000000000000000000000000000000081526004018080602001828103825260338152602001807f426964206e6565647320746f20626520706179656420746f20746865206f776e81526020017f6572206265666f72652064657374727563742e0000000000000000000000000081525060400191505060405180910390fd5b600160009054906101000a900473ffffffffffffffffffffffffffffffffffffffff1673ffffffffffffffffffffffffffffffffffffffff16ff5b60606000806060806000806003600254600160009054906101000a900473ffffffffffffffffffffffffffffffffffffffff166009600a600754600580549050868054600181600116156101000203166002900480601f0160208091040260200160405190810160405280929190818152602001828054600181600116156101000203166002900480156104e85780601f106104bd576101008083540402835291602001916104e8565b820191906000526020600020905b8154815290600101906020018083116104cb57829003601f168201915b50505050509650838054600181600116156101000203166002900480601f0160208091040260200160405190810160405280929190818152602001828054600181600116156101000203166002900480156105845780601f1061055957610100808354040283529160200191610584565b820191906000526020600020905b81548152906001019060200180831161056757829003601f168201915b50505050509350828054600181600116156101000203166002900480601f0160208091040260200160405190810160405280929190818152602001828054600181600116156101000203166002900480156106205780601f106105f557610100808354040283529160200191610620565b820191906000526020600020905b81548152906001019060200180831161060357829003601f168201915b50505050509250965096509650965096509650965090919293949596565b600254421115156106b7576040517f08c379a00000000000000000000000000000000000000000000000000000000081526004018080602001828103825260208152602001807f426964206861736e277420726561636865642074686520646561646c696e652e81525060200191505060405180910390fd5b60003073ffffffffffffffffffffffffffffffffffffffff1631111515610746576040517f08c379a000000000000000000000000000000000000000000000000000000000815260040180806020018281038252601d8152602001807f42696420646f65736e2774206861766520616e792062616c616e63652e00000081525060200191505060405180910390fd5b600160009054906101000a900473ffffffffffffffffffffffffffffffffffffffff1673ffffffffffffffffffffffffffffffffffffffff166108fc6007549081150290604051600060405180830381858888f193505050501580156107b0573d6000803e3d6000fd5b506001600860006101000a81548160ff021916908360018111156107d057fe5b0217905550565b600061082b34600460003273ffffffffffffffffffffffffffffffffffffffff1673ffffffffffffffffffffffffffffffffffffffff16815260200190815260200160002054610e8f90919063ffffffff16565b9050600754811115156108cc576040517f08c379a000000000000000000000000000000000000000000000000000000000815260040180806020018281038252602e8152602001807f546f74616c20626964206e6565647320746f206265206869676865722074686181526020017f6e207468652063757272656e742e00000000000000000000000000000000000081525060400191505060405180910390fd5b600160009054906101000a900473ffffffffffffffffffffffffffffffffffffffff1673ffffffffffffffffffffffffffffffffffffffff163273ffffffffffffffffffffffffffffffffffffffff1614151515610992576040517f08c379a000000000000000000000000000000000000000000000000000000000815260040180806020018281038252601f8152602001807f42656e65666963696172792063616e6e6f742062652061206269646465722e0081525060200191505060405180910390fd5b8060078190555032600660006101000a81548173ffffffffffffffffffffffffffffffffffffffff021916908373ffffffffffffffffffffffffffffffffffffffff160217905550600060046000600660009054906101000a900473ffffffffffffffffffffffffffffffffffffffff1673ffffffffffffffffffffffffffffffffffffffff1673ffffffffffffffffffffffffffffffffffffffff168152602001908152602001600020541415610acd576005600660009054906101000a900473ffffffffffffffffffffffffffffffffffffffff1690806001815401808255809150509060018203906000526020600020016000909192909190916101000a81548173ffffffffffffffffffffffffffffffffffffffff021916908373ffffffffffffffffffffffffffffffffffffffff160217905550505b60075460046000600660009054906101000a900473ffffffffffffffffffffffffffffffffffffffff1673ffffffffffffffffffffffffffffffffffffffff1673ffffffffffffffffffffffffffffffffffffffff168152602001908152602001600020819055507fb2807a897418df107fcb8f1c4fbf286b5428f7df052d77dd2c66cf3de78dc33a600660009054906101000a900473ffffffffffffffffffffffffffffffffffffffff16600754604051808373ffffffffffffffffffffffffffffffffffffffff1673ffffffffffffffffffffffffffffffffffffffff1681526020018281526020019250505060405180910390a150565b600060025442111515610c42576040517f08c379a00000000000000000000000000000000000000000000000000000000081526004018080602001828103825260208152602001807f426964206861736e277420726561636865642074686520646561646c696e652e81525060200191505060405180910390fd5b60003073ffffffffffffffffffffffffffffffffffffffff1631111515610cd1576040517f08c379a000000000000000000000000000000000000000000000000000000000815260040180806020018281038252601d8152602001807f42696420646f65736e2774206861766520616e792062616c616e63652e00000081525060200191505060405180910390fd5b600660009054906101000a900473ffffffffffffffffffffffffffffffffffffffff1673ffffffffffffffffffffffffffffffffffffffff168273ffffffffffffffffffffffffffffffffffffffff1614151515610dbd576040517f08c379a00000000000000000000000000000000000000000000000000000000081526004018080602001828103825260228152602001807f4d6178696d756d206269646465722063616e6e6f7420626520726566756e646581526020017f642e00000000000000000000000000000000000000000000000000000000000081525060400191505060405180910390fd5b600460008373ffffffffffffffffffffffffffffffffffffffff1673ffffffffffffffffffffffffffffffffffffffff1681526020019081526020016000205490506000600460008473ffffffffffffffffffffffffffffffffffffffff1673ffffffffffffffffffffffffffffffffffffffff168152602001908152602001600020819055508173ffffffffffffffffffffffffffffffffffffffff166108fc829081150290604051600060405180830381858888f19350505050158015610e8a573d6000803e3d6000fd5b505050565b6000808284019050838110151515610ea657600080fd5b80915050929150505600a165627a7a72305820da743409e6220fb07e58fa913c6b3f048c6ab13865bcb2aa6f4fe56d41a17b910029",
  "source": "pragma solidity ^0.4.24;\n\nimport \"./SafeMath.sol\";\n\ncontract Bid {\n    using SafeMath for uint256;\n    \n    uint id;\n    address beneficiary;\n    uint deadline;\n    string name;\n    mapping (address => uint) private bidders;\n    address[] totalBiddersArr;\n    address maxBidder;\n    uint maxBid;\n    bidState state;\n    string description;\n    string url;\n\n    event AddBid(address _bidder, uint _amount);\n\n    enum bidState { Bidding, Payed }\n\n    modifier deadlineReached { \n        require(now > deadline, \"Bid hasn't reached the deadline.\");\n        _;\n    }\n\n    modifier hasBalance { \n        require(address(this).balance > 0, \"Bid doesn't have any balance.\");\n        _;\n    }\n\n    constructor(string _name, uint _deadline, address _beneficiary, string _description, string _url) public {\n        name = _name;\n        deadline = now + _deadline;\n        beneficiary = _beneficiary;\n        state = bidState.Bidding;\n        description = _description;\n        url = _url;\n    }\n\n    //Returns name, deadline, beneficiary, description, url, maxBid, totalBidders\n    function bidDetails() public view returns (string, uint, address, string, string, uint, uint) {\n        return (\n            name,\n            deadline,\n            beneficiary,\n            description,\n            url,\n            maxBid,\n            totalBiddersArr.length\n        );\n    }\n\n    function addBid() public payable {\n        uint bid = bidders[tx.origin].add(msg.value);\n\n        require(bid > maxBid, \"Total bid needs to be higher than the current.\");\n        require(tx.origin != beneficiary, \"Beneficiary cannot be a bidder.\");\n\n        maxBid = bid;\n        maxBidder = tx.origin;\n\n        if(bidders[maxBidder] == 0) totalBiddersArr.push(maxBidder);\n        bidders[maxBidder] = maxBid;\n        emit AddBid(maxBidder, maxBid);\n    }\n\n    function payout() public deadlineReached hasBalance {\n        \n        beneficiary.transfer(maxBid);\n        state = bidState.Payed;\n    }\n\n    function refund(address _bidderAddr) public deadlineReached hasBalance {\n        require(_bidderAddr != maxBidder, \"Maximum bidder cannot be refunded.\");\n\n        uint amountToSend = bidders[_bidderAddr];\n        bidders[_bidderAddr] = 0;\n        _bidderAddr.transfer(amountToSend);\n    }\n\n    function disable() public deadlineReached {\n        require(state == bidState.Payed, \"Bid needs to be payed to the owner before destruct.\");\n        selfdestruct(beneficiary);\n    }\n}",
  "sourcePath": "/home/mauman/Documents/Master/Course/bidchain/contracts/Bid.sol",
  "compiler": {
    "name": "solc",
    "version": "0.4.24+commit.e67f0147.Emscripten.clang"
  },
  "schemaVersion": "2.0.1",
  "updatedAt": "2018-09-05T20:28:08.511Z"
}