{
  "contractName": "Dashboard",
  "abi": [
    {
      "constant": true,
      "inputs": [],
      "name": "bidCount",
      "outputs": [
        {
          "name": "",
          "type": "uint256"
        }
      ],
      "payable": false,
      "stateMutability": "view",
      "type": "function"
    },
    {
      "constant": false,
      "inputs": [
        {
          "name": "_name",
          "type": "string"
        },
        {
          "name": "_duration",
          "type": "uint256"
        },
        {
          "name": "_beneficiary",
          "type": "address"
        },
        {
          "name": "_description",
          "type": "string"
        },
        {
          "name": "_url",
          "type": "string"
        }
      ],
      "name": "newBid",
      "outputs": [],
      "payable": false,
      "stateMutability": "nonpayable",
      "type": "function"
    },
    {
      "constant": true,
      "inputs": [
        {
          "name": "_id",
          "type": "uint256"
        }
      ],
      "name": "viewCurrentBid",
      "outputs": [
        {
          "name": "",
          "type": "string"
        },
        {
          "name": "",
          "type": "uint256"
        },
        {
          "name": "",
          "type": "address"
        },
        {
          "name": "",
          "type": "string"
        },
        {
          "name": "",
          "type": "string"
        },
        {
          "name": "",
          "type": "uint256"
        },
        {
          "name": "",
          "type": "uint256"
        }
      ],
      "payable": false,
      "stateMutability": "view",
      "type": "function"
    },
    {
      "constant": false,
      "inputs": [
        {
          "name": "_id",
          "type": "uint256"
        }
      ],
      "name": "makeBid",
      "outputs": [],
      "payable": true,
      "stateMutability": "payable",
      "type": "function"
    },
    {
      "constant": false,
      "inputs": [
        {
          "name": "_id",
          "type": "uint256"
        }
      ],
      "name": "getRefund",
      "outputs": [],
      "payable": false,
      "stateMutability": "nonpayable",
      "type": "function"
    },
    {
      "constant": false,
      "inputs": [
        {
          "name": "_id",
          "type": "uint256"
        }
      ],
      "name": "pushPayout",
      "outputs": [],
      "payable": false,
      "stateMutability": "nonpayable",
      "type": "function"
    }
  ],
  "bytecode": "0x608060405234801561001057600080fd5b50612092806100206000396000f300608060405260043610610078576000357c0100000000000000000000000000000000000000000000000000000000900463ffffffff168063109793651461007d578063175b2304146100aa578063269e87d4146100ca578063b40a562714610290578063c02b401e146102bb578063d2f0be99146103da575b600080fd5b34801561008957600080fd5b506100a860048036038101908080359060200190929190505050610407565b005b6100c860048036038101908080359060200190929190505050610599565b005b3480156100d657600080fd5b506100f560048036038101908080359060200190929190505050610801565b60405180806020018881526020018773ffffffffffffffffffffffffffffffffffffffff1673ffffffffffffffffffffffffffffffffffffffff168152602001806020018060200186815260200185815260200184810384528b818151815260200191508051906020019080838360005b83811015610181578082015181840152602081019050610166565b50505050905090810190601f1680156101ae5780820380516001836020036101000a031916815260200191505b50848103835288818151815260200191508051906020019080838360005b838110156101e75780820151818401526020810190506101cc565b50505050905090810190601f1680156102145780820380516001836020036101000a031916815260200191505b50848103825287818151815260200191508051906020019080838360005b8381101561024d578082015181840152602081019050610232565b50505050905090810190601f16801561027a5780820380516001836020036101000a031916815260200191505b509a505050505050505050505060405180910390f35b34801561029c57600080fd5b506102a5610af6565b6040518082815260200191505060405180910390f35b3480156102c757600080fd5b506103d8600480360381019080803590602001908201803590602001908080601f016020809104026020016040519081016040528093929190818152602001838380828437820191505050505050919291929080359060200190929190803573ffffffffffffffffffffffffffffffffffffffff169060200190929190803590602001908201803590602001908080601f0160208091040260200160405190810160405280939291908181526020018383808284378201915050505050509192919290803590602001908201803590602001908080601f0160208091040260200160405190810160405280939291908181526020018383808284378201915050505050509192919290505050610afc565b005b3480156103e657600080fd5b5061040560048036038101908080359060200190929190505050610d19565b005b600081600073ffffffffffffffffffffffffffffffffffffffff166001600083815260200190815260200160002060009054906101000a900473ffffffffffffffffffffffffffffffffffffffff1673ffffffffffffffffffffffffffffffffffffffff16141515156104e2576040517f08c379a00000000000000000000000000000000000000000000000000000000081526004018080602001828103825260108152602001807f496e76616c696420616464726573732e0000000000000000000000000000000081525060200191505060405180910390fd5b6001600084815260200190815260200160002060009054906101000a900473ffffffffffffffffffffffffffffffffffffffff1691508173ffffffffffffffffffffffffffffffffffffffff166363bd1d4a6040518163ffffffff167c0100000000000000000000000000000000000000000000000000000000028152600401600060405180830381600087803b15801561057c57600080fd5b505af1158015610590573d6000803e3d6000fd5b50505050505050565b600081600073ffffffffffffffffffffffffffffffffffffffff166001600083815260200190815260200160002060009054906101000a900473ffffffffffffffffffffffffffffffffffffffff1673ffffffffffffffffffffffffffffffffffffffff1614151515610674576040517f08c379a00000000000000000000000000000000000000000000000000000000081526004018080602001828103825260108152602001807f496e76616c696420616464726573732e0000000000000000000000000000000081525060200191505060405180910390fd5b600034111515610712576040517f08c379a00000000000000000000000000000000000000000000000000000000081526004018080602001828103825260268152602001807f4e657720626964206e6565647320746f2062652067726561746572207468616e81526020017f207a65726f2e000000000000000000000000000000000000000000000000000081525060400191505060405180910390fd5b6001600084815260200190815260200160002060009054906101000a900473ffffffffffffffffffffffffffffffffffffffff1691508173ffffffffffffffffffffffffffffffffffffffff1663cb7c85fc34336040518363ffffffff167c0100000000000000000000000000000000000000000000000000000000028152600401808273ffffffffffffffffffffffffffffffffffffffff1673ffffffffffffffffffffffffffffffffffffffff1681526020019150506000604051808303818588803b1580156107e357600080fd5b505af11580156107f7573d6000803e3d6000fd5b5050505050505050565b6060600080606080600080600088600073ffffffffffffffffffffffffffffffffffffffff166001600083815260200190815260200160002060009054906101000a900473ffffffffffffffffffffffffffffffffffffffff1673ffffffffffffffffffffffffffffffffffffffff16141515156108e7576040517f08c379a00000000000000000000000000000000000000000000000000000000081526004018080602001828103825260108152602001807f496e76616c696420616464726573732e0000000000000000000000000000000081525060200191505060405180910390fd5b600160008b815260200190815260200160002060009054906101000a900473ffffffffffffffffffffffffffffffffffffffff1691508173ffffffffffffffffffffffffffffffffffffffff16634c6d299c6040518163ffffffff167c0100000000000000000000000000000000000000000000000000000000028152600401600060405180830381600087803b15801561098157600080fd5b505af1158015610995573d6000803e3d6000fd5b505050506040513d6000823e3d601f19601f8201168201806040525060e08110156109bf57600080fd5b8101908080516401000000008111156109d757600080fd5b828101905060208101848111156109ed57600080fd5b8151856001820283011164010000000082111715610a0a57600080fd5b505092919060200180519060200190929190805190602001909291908051640100000000811115610a3a57600080fd5b82810190506020810184811115610a5057600080fd5b8151856001820283011164010000000082111715610a6d57600080fd5b50509291906020018051640100000000811115610a8957600080fd5b82810190506020810184811115610a9f57600080fd5b8151856001820283011164010000000082111715610abc57600080fd5b5050929190602001805190602001909291908051906020019092919050505098509850985098509850985098505050919395979092949650565b60005481565b600085854201858585610b0d610ee2565b80806020018681526020018573ffffffffffffffffffffffffffffffffffffffff1673ffffffffffffffffffffffffffffffffffffffff1681526020018060200180602001848103845289818151815260200191508051906020019080838360005b83811015610b8a578082015181840152602081019050610b6f565b50505050905090810190601f168015610bb75780820380516001836020036101000a031916815260200191505b50848103835286818151815260200191508051906020019080838360005b83811015610bf0578082015181840152602081019050610bd5565b50505050905090810190601f168015610c1d5780820380516001836020036101000a031916815260200191505b50848103825285818151815260200191508051906020019080838360005b83811015610c56578082015181840152602081019050610c3b565b50505050905090810190601f168015610c835780820380516001836020036101000a031916815260200191505b5098505050505050505050604051809103906000f080158015610caa573d6000803e3d6000fd5b50905080600160008054815260200190815260200160002060006101000a81548173ffffffffffffffffffffffffffffffffffffffff021916908373ffffffffffffffffffffffffffffffffffffffff1602179055506000808154809291906001019190505550505050505050565b600081600073ffffffffffffffffffffffffffffffffffffffff166001600083815260200190815260200160002060009054906101000a900473ffffffffffffffffffffffffffffffffffffffff1673ffffffffffffffffffffffffffffffffffffffff1614151515610df4576040517f08c379a00000000000000000000000000000000000000000000000000000000081526004018080602001828103825260108152602001807f496e76616c696420616464726573732e0000000000000000000000000000000081525060200191505060405180910390fd5b6001600084815260200190815260200160002060009054906101000a900473ffffffffffffffffffffffffffffffffffffffff1691508173ffffffffffffffffffffffffffffffffffffffff1663fa89401a336040518263ffffffff167c0100000000000000000000000000000000000000000000000000000000028152600401808273ffffffffffffffffffffffffffffffffffffffff1673ffffffffffffffffffffffffffffffffffffffff168152602001915050600060405180830381600087803b158015610ec557600080fd5b505af1158015610ed9573d6000803e3d6000fd5b50505050505050565b60405161117480610ef383390190560060806040523480156200001157600080fd5b506040516200117438038062001174833981018060405281019080805182019291906020018051906020019092919080519060200190929190805182019291906020018051820192919050505084600290805190602001906200007692919062000120565b5083600181905550826000806101000a81548173ffffffffffffffffffffffffffffffffffffffff021916908373ffffffffffffffffffffffffffffffffffffffff1602179055508160089080519060200190620000d692919062000120565b508060099080519060200190620000ef92919062000120565b506000600760006101000a81548160ff021916908360018111156200011057fe5b02179055505050505050620001cf565b828054600181600116156101000203166002900490600052602060002090601f016020900481019282601f106200016357805160ff191683800117855562000194565b8280016001018555821562000194579182015b828111156200019357825182559160200191906001019062000176565b5b509050620001a39190620001a7565b5090565b620001cc91905b80821115620001c8576000816000905550600101620001ae565b5090565b90565b610f9580620001df6000396000f30060806040526004361061006d576000357c0100000000000000000000000000000000000000000000000000000000900463ffffffff1680632f2770db146100725780634c6d299c1461008957806363bd1d4a14610239578063cb7c85fc14610250578063fa89401a14610286575b600080fd5b34801561007e57600080fd5b506100876102c9565b005b34801561009557600080fd5b5061009e6103ce565b60405180806020018881526020018773ffffffffffffffffffffffffffffffffffffffff1673ffffffffffffffffffffffffffffffffffffffff168152602001806020018060200186815260200185815260200184810384528b818151815260200191508051906020019080838360005b8381101561012a57808201518184015260208101905061010f565b50505050905090810190601f1680156101575780820380516001836020036101000a031916815260200191505b50848103835288818151815260200191508051906020019080838360005b83811015610190578082015181840152602081019050610175565b50505050905090810190601f1680156101bd5780820380516001836020036101000a031916815260200191505b50848103825287818151815260200191508051906020019080838360005b838110156101f65780820151818401526020810190506101db565b50505050905090810190601f1680156102235780820380516001836020036101000a031916815260200191505b509a505050505050505050505060405180910390f35b34801561024557600080fd5b5061024e61060b565b005b610284600480360381019080803573ffffffffffffffffffffffffffffffffffffffff1690602001909291905050506107ab565b005b34801561029257600080fd5b506102c7600480360381019080803573ffffffffffffffffffffffffffffffffffffffff169060200190929190505050610b9b565b005b60015442111515610342576040517f08c379a00000000000000000000000000000000000000000000000000000000081526004018080602001828103825260208152602001807f426964206861736e277420726561636865642074686520646561646c696e652e81525060200191505060405180910390fd5b60003073ffffffffffffffffffffffffffffffffffffffff163111801561038d575060018081111561037057fe5b600760009054906101000a900460ff16600181111561038b57fe5b145b156103cc576000809054906101000a900473ffffffffffffffffffffffffffffffffffffffff1673ffffffffffffffffffffffffffffffffffffffff16ff5b565b6060600080606080600080600242600154116103eb5760006103f1565b42600154035b6000809054906101000a900473ffffffffffffffffffffffffffffffffffffffff1660086009600654600480549050868054600181600116156101000203166002900480601f0160208091040260200160405190810160405280929190818152602001828054600181600116156101000203166002900480156104b55780601f1061048a576101008083540402835291602001916104b5565b820191906000526020600020905b81548152906001019060200180831161049857829003601f168201915b50505050509650838054600181600116156101000203166002900480601f0160208091040260200160405190810160405280929190818152602001828054600181600116156101000203166002900480156105515780601f1061052657610100808354040283529160200191610551565b820191906000526020600020905b81548152906001019060200180831161053457829003601f168201915b50505050509350828054600181600116156101000203166002900480601f0160208091040260200160405190810160405280929190818152602001828054600181600116156101000203166002900480156105ed5780601f106105c2576101008083540402835291602001916105ed565b820191906000526020600020905b8154815290600101906020018083116105d057829003601f168201915b50505050509250965096509650965096509650965090919293949596565b60015442111515610684576040517f08c379a00000000000000000000000000000000000000000000000000000000081526004018080602001828103825260208152602001807f426964206861736e277420726561636865642074686520646561646c696e652e81525060200191505060405180910390fd5b60003073ffffffffffffffffffffffffffffffffffffffff1631111515610713576040517f08c379a000000000000000000000000000000000000000000000000000000000815260040180806020018281038252601d8152602001807f42696420646f65736e2774206861766520616e792062616c616e63652e00000081525060200191505060405180910390fd5b6000809054906101000a900473ffffffffffffffffffffffffffffffffffffffff1673ffffffffffffffffffffffffffffffffffffffff166108fc6006549081150290604051600060405180830381858888f1935050505015801561077c573d6000803e3d6000fd5b506001600760006101000a81548160ff0219169083600181111561079c57fe5b02179055506107a96102c9565b565b60006107ff34600360008573ffffffffffffffffffffffffffffffffffffffff1673ffffffffffffffffffffffffffffffffffffffff16815260200190815260200160002054610f4890919063ffffffff16565b9050600654811115156108a0576040517f08c379a000000000000000000000000000000000000000000000000000000000815260040180806020018281038252602e8152602001807f546f74616c20626964206e6565647320746f206265206869676865722074686181526020017f6e207468652063757272656e742e00000000000000000000000000000000000081525060400191505060405180910390fd5b6000809054906101000a900473ffffffffffffffffffffffffffffffffffffffff1673ffffffffffffffffffffffffffffffffffffffff168273ffffffffffffffffffffffffffffffffffffffff1614151515610965576040517f08c379a000000000000000000000000000000000000000000000000000000000815260040180806020018281038252601f8152602001807f42656e65666963696172792063616e6e6f742062652061206269646465722e0081525060200191505060405180910390fd5b8060068190555081600560006101000a81548173ffffffffffffffffffffffffffffffffffffffff021916908373ffffffffffffffffffffffffffffffffffffffff160217905550600060036000600560009054906101000a900473ffffffffffffffffffffffffffffffffffffffff1673ffffffffffffffffffffffffffffffffffffffff1673ffffffffffffffffffffffffffffffffffffffff168152602001908152602001600020541415610aa0576004600560009054906101000a900473ffffffffffffffffffffffffffffffffffffffff1690806001815401808255809150509060018203906000526020600020016000909192909190916101000a81548173ffffffffffffffffffffffffffffffffffffffff021916908373ffffffffffffffffffffffffffffffffffffffff160217905550505b60065460036000600560009054906101000a900473ffffffffffffffffffffffffffffffffffffffff1673ffffffffffffffffffffffffffffffffffffffff1673ffffffffffffffffffffffffffffffffffffffff168152602001908152602001600020819055507fb2807a897418df107fcb8f1c4fbf286b5428f7df052d77dd2c66cf3de78dc33a600560009054906101000a900473ffffffffffffffffffffffffffffffffffffffff16600654604051808373ffffffffffffffffffffffffffffffffffffffff1673ffffffffffffffffffffffffffffffffffffffff1681526020018281526020019250505060405180910390a15050565b600060015442111515610c16576040517f08c379a00000000000000000000000000000000000000000000000000000000081526004018080602001828103825260208152602001807f426964206861736e277420726561636865642074686520646561646c696e652e81525060200191505060405180910390fd5b60003073ffffffffffffffffffffffffffffffffffffffff1631111515610ca5576040517f08c379a000000000000000000000000000000000000000000000000000000000815260040180806020018281038252601d8152602001807f42696420646f65736e2774206861766520616e792062616c616e63652e00000081525060200191505060405180910390fd5b600560009054906101000a900473ffffffffffffffffffffffffffffffffffffffff1673ffffffffffffffffffffffffffffffffffffffff168273ffffffffffffffffffffffffffffffffffffffff1614151515610d91576040517f08c379a00000000000000000000000000000000000000000000000000000000081526004018080602001828103825260228152602001807f4d6178696d756d206269646465722063616e6e6f7420626520726566756e646581526020017f642e00000000000000000000000000000000000000000000000000000000000081525060400191505060405180910390fd5b6000600360008473ffffffffffffffffffffffffffffffffffffffff1673ffffffffffffffffffffffffffffffffffffffff16815260200190815260200160002054111515610e6e576040517f08c379a00000000000000000000000000000000000000000000000000000000081526004018080602001828103825260218152602001807f42696464657220686173206265656e20616c726561647920726566756e64656481526020017f2e0000000000000000000000000000000000000000000000000000000000000081525060400191505060405180910390fd5b600360008373ffffffffffffffffffffffffffffffffffffffff1673ffffffffffffffffffffffffffffffffffffffff1681526020019081526020016000205490506000600360008473ffffffffffffffffffffffffffffffffffffffff1673ffffffffffffffffffffffffffffffffffffffff168152602001908152602001600020819055508173ffffffffffffffffffffffffffffffffffffffff166108fc829081150290604051600060405180830381858888f19350505050158015610f3b573d6000803e3d6000fd5b50610f446102c9565b5050565b6000808284019050838110151515610f5f57600080fd5b80915050929150505600a165627a7a7230582024f2494178576219348f82d54617906490399133bc8766341a973319b43a72de0029a165627a7a7230582047a45d507553a69bda25d520ea7ad008e66f425157a27e25262200980bb52fe70029",
  "source": "pragma solidity ^0.4.24;\n\nimport \"./Bid.sol\";\n\ncontract Dashboard {\n\n    uint public bidCount;\n\n    mapping(uint => address) private bidInfo;\n\n\n    modifier validateAddress(uint _id) {\n        require(bidInfo[_id] != address(0), \"Invalid address.\");\n        _;\n    }\n    \n    function newBid(string _name, uint _duration, address _beneficiary, string _description, string _url) public {\n        Bid bid = new Bid(_name, now + _duration, _beneficiary, _description, _url);\n        bidInfo[bidCount] = bid;\n        bidCount++;\n    }\n\n    function viewCurrentBid(uint _id) public validateAddress(_id) view returns (string, uint, address, string, string, uint, uint) {\n        Bid bid = Bid(bidInfo[_id]);\n        return bid.bidDetails();\n    }\n\n    function makeBid(uint _id)  public payable validateAddress(_id) {\n        require(msg.value > 0, \"New bid needs to be greater than zero.\");\n        Bid bid = Bid(bidInfo[_id]);\n        bid.addBid.value(msg.value)(msg.sender);\n    }\n\n    function getRefund(uint _id) public validateAddress(_id) {\n        Bid bid = Bid(bidInfo[_id]);\n        bid.refund(msg.sender);\n    }\n\n    function pushPayout(uint _id) public validateAddress(_id) {\n        Bid bid = Bid(bidInfo[_id]);\n        bid.payout();\n    }\n}\n",
  "sourcePath": "/home/jorge/src/bidchain-solidity/contracts/Dashboard.sol",
  "compiler": {
    "name": "solc",
    "version": "0.4.24+commit.e67f0147.Emscripten.clang"
  },
  "schemaVersion": "2.0.1",
  "updatedAt": "2018-09-06T23:57:46.328Z"
}