{
  "contractName": "Dashboard",
  "abi": [
    {
      "constant": true,
      "inputs": [],
      "name": "database",
      "outputs": [
        {
          "name": "",
          "type": "address"
        }
      ],
      "payable": false,
      "stateMutability": "view",
      "type": "function"
    },
    {
      "constant": true,
      "inputs": [],
      "name": "bidCount",
      "outputs": [
        {
          "name": "",
          "type": "uint256"
        }
      ],
      "payable": false,
      "stateMutability": "view",
      "type": "function"
    },
    {
      "inputs": [
        {
          "name": "_factorAddr",
          "type": "address"
        }
      ],
      "payable": false,
      "stateMutability": "nonpayable",
      "type": "constructor"
    },
    {
      "constant": true,
      "inputs": [
        {
          "name": "_id",
          "type": "uint256"
        }
      ],
      "name": "getBidAddress",
      "outputs": [
        {
          "name": "",
          "type": "address"
        }
      ],
      "payable": false,
      "stateMutability": "view",
      "type": "function"
    },
    {
      "constant": false,
      "inputs": [
        {
          "name": "_name",
          "type": "string"
        },
        {
          "name": "_duration",
          "type": "uint256"
        },
        {
          "name": "_beneficiary",
          "type": "address"
        },
        {
          "name": "_description",
          "type": "string"
        },
        {
          "name": "_url",
          "type": "string"
        }
      ],
      "name": "newBid",
      "outputs": [],
      "payable": false,
      "stateMutability": "nonpayable",
      "type": "function"
    },
    {
      "constant": true,
      "inputs": [
        {
          "name": "_id",
          "type": "uint256"
        }
      ],
      "name": "viewCurrentBid",
      "outputs": [
        {
          "name": "",
          "type": "string"
        },
        {
          "name": "",
          "type": "uint256"
        },
        {
          "name": "",
          "type": "address"
        },
        {
          "name": "",
          "type": "string"
        },
        {
          "name": "",
          "type": "string"
        },
        {
          "name": "",
          "type": "uint256"
        },
        {
          "name": "",
          "type": "uint256"
        }
      ],
      "payable": false,
      "stateMutability": "view",
      "type": "function"
    },
    {
      "constant": false,
      "inputs": [
        {
          "name": "_id",
          "type": "uint256"
        }
      ],
      "name": "makeBid",
      "outputs": [],
      "payable": true,
      "stateMutability": "payable",
      "type": "function"
    },
    {
      "constant": false,
      "inputs": [
        {
          "name": "_id",
          "type": "uint256"
        }
      ],
      "name": "getRefund",
      "outputs": [],
      "payable": false,
      "stateMutability": "nonpayable",
      "type": "function"
    },
    {
      "constant": false,
      "inputs": [
        {
          "name": "_id",
          "type": "uint256"
        }
      ],
      "name": "pushPayout",
      "outputs": [],
      "payable": false,
      "stateMutability": "nonpayable",
      "type": "function"
    }
  ],
  "bytecode": "0x608060405234801561001057600080fd5b50604051602080610f9b83398101806040528101908080519060200190929190505050806000806101000a81548173ffffffffffffffffffffffffffffffffffffffff021916908373ffffffffffffffffffffffffffffffffffffffff16021790555050610f18806100836000396000f30060806040526004361061008e576000357c0100000000000000000000000000000000000000000000000000000000900463ffffffff1680631097936514610093578063175b2304146100c0578063269e87d4146100e057806369f632e2146102a6578063713b563f14610313578063b40a56271461036a578063c02b401e14610395578063d2f0be99146104b4575b600080fd5b34801561009f57600080fd5b506100be600480360381019080803590602001909291905050506104e1565b005b6100de6004803603810190808035906020019092919050505061061d565b005b3480156100ec57600080fd5b5061010b6004803603810190808035906020019092919050505061077b565b60405180806020018881526020018773ffffffffffffffffffffffffffffffffffffffff1673ffffffffffffffffffffffffffffffffffffffff168152602001806020018060200186815260200185815260200184810384528b818151815260200191508051906020019080838360005b8381101561019757808201518184015260208101905061017c565b50505050905090810190601f1680156101c45780820380516001836020036101000a031916815260200191505b50848103835288818151815260200191508051906020019080838360005b838110156101fd5780820151818401526020810190506101e2565b50505050905090810190601f16801561022a5780820380516001836020036101000a031916815260200191505b50848103825287818151815260200191508051906020019080838360005b83811015610263578082015181840152602081019050610248565b50505050905090810190601f1680156102905780820380516001836020036101000a031916815260200191505b509a505050505050505050505060405180910390f35b3480156102b257600080fd5b506102d160048036038101908080359060200190929190505050610a1a565b604051808273ffffffffffffffffffffffffffffffffffffffff1673ffffffffffffffffffffffffffffffffffffffff16815260200191505060405180910390f35b34801561031f57600080fd5b50610328610aee565b604051808273ffffffffffffffffffffffffffffffffffffffff1673ffffffffffffffffffffffffffffffffffffffff16815260200191505060405180910390f35b34801561037657600080fd5b5061037f610b13565b6040518082815260200191505060405180910390f35b3480156103a157600080fd5b506104b2600480360381019080803590602001908201803590602001908080601f016020809104026020016040519081016040528093929190818152602001838380828437820191505050505050919291929080359060200190929190803573ffffffffffffffffffffffffffffffffffffffff169060200190929190803590602001908201803590602001908080601f0160208091040260200160405190810160405280939291908181526020018383808284378201915050505050509192919290803590602001908201803590602001908080601f0160208091040260200160405190810160405280939291908181526020018383808284378201915050505050509192919290505050610b19565b005b3480156104c057600080fd5b506104df60048036038101908080359060200190929190505050610d79565b005b600081600073ffffffffffffffffffffffffffffffffffffffff1661050582610a1a565b73ffffffffffffffffffffffffffffffffffffffff1614151515610591576040517f08c379a00000000000000000000000000000000000000000000000000000000081526004018080602001828103825260108152602001807f496e76616c696420616464726573732e0000000000000000000000000000000081525060200191505060405180910390fd5b61059a83610a1a565b91508173ffffffffffffffffffffffffffffffffffffffff166363bd1d4a6040518163ffffffff167c0100000000000000000000000000000000000000000000000000000000028152600401600060405180830381600087803b15801561060057600080fd5b505af1158015610614573d6000803e3d6000fd5b50505050505050565b600081600073ffffffffffffffffffffffffffffffffffffffff1661064182610a1a565b73ffffffffffffffffffffffffffffffffffffffff16141515156106cd576040517f08c379a00000000000000000000000000000000000000000000000000000000081526004018080602001828103825260108152602001807f496e76616c696420616464726573732e0000000000000000000000000000000081525060200191505060405180910390fd5b60003411151561076b576040517f08c379a00000000000000000000000000000000000000000000000000000000081526004018080602001828103825260268152602001807f4e657720626964206e6565647320746f2062652067726561746572207468616e81526020017f207a65726f2e000000000000000000000000000000000000000000000000000081525060400191505060405180910390fd5b61077483610a1a565b9150505050565b6060600080606080600080600088600073ffffffffffffffffffffffffffffffffffffffff166107aa82610a1a565b73ffffffffffffffffffffffffffffffffffffffff1614151515610836576040517f08c379a00000000000000000000000000000000000000000000000000000000081526004018080602001828103825260108152602001807f496e76616c696420616464726573732e0000000000000000000000000000000081525060200191505060405180910390fd5b61083f8a610a1a565b91508173ffffffffffffffffffffffffffffffffffffffff16634c6d299c6040518163ffffffff167c0100000000000000000000000000000000000000000000000000000000028152600401600060405180830381600087803b1580156108a557600080fd5b505af11580156108b9573d6000803e3d6000fd5b505050506040513d6000823e3d601f19601f8201168201806040525060e08110156108e357600080fd5b8101908080516401000000008111156108fb57600080fd5b8281019050602081018481111561091157600080fd5b815185600182028301116401000000008211171561092e57600080fd5b50509291906020018051906020019092919080519060200190929190805164010000000081111561095e57600080fd5b8281019050602081018481111561097457600080fd5b815185600182028301116401000000008211171561099157600080fd5b505092919060200180516401000000008111156109ad57600080fd5b828101905060208101848111156109c357600080fd5b81518560018202830111640100000000821117156109e057600080fd5b5050929190602001805190602001909291908051906020019092919050505098509850985098509850985098505050919395979092949650565b60008060009054906101000a900473ffffffffffffffffffffffffffffffffffffffff1673ffffffffffffffffffffffffffffffffffffffff16632201db31836040518263ffffffff167c010000000000000000000000000000000000000000000000000000000002815260040180828152602001915050602060405180830381600087803b158015610aac57600080fd5b505af1158015610ac0573d6000803e3d6000fd5b505050506040513d6020811015610ad657600080fd5b81019080805190602001909291905050509050919050565b6000809054906101000a900473ffffffffffffffffffffffffffffffffffffffff1681565b60015481565b6000809054906101000a900473ffffffffffffffffffffffffffffffffffffffff1673ffffffffffffffffffffffffffffffffffffffff1663c02b401e86868686866040518663ffffffff167c010000000000000000000000000000000000000000000000000000000002815260040180806020018681526020018573ffffffffffffffffffffffffffffffffffffffff1673ffffffffffffffffffffffffffffffffffffffff1681526020018060200180602001848103845289818151815260200191508051906020019080838360005b83811015610c06578082015181840152602081019050610beb565b50505050905090810190601f168015610c335780820380516001836020036101000a031916815260200191505b50848103835286818151815260200191508051906020019080838360005b83811015610c6c578082015181840152602081019050610c51565b50505050905090810190601f168015610c995780820380516001836020036101000a031916815260200191505b50848103825285818151815260200191508051906020019080838360005b83811015610cd2578082015181840152602081019050610cb7565b50505050905090810190601f168015610cff5780820380516001836020036101000a031916815260200191505b5098505050505050505050602060405180830381600087803b158015610d2457600080fd5b505af1158015610d38573d6000803e3d6000fd5b505050506040513d6020811015610d4e57600080fd5b8101908080519060200190929190505050506001600081548092919060010191905055505050505050565b600081600073ffffffffffffffffffffffffffffffffffffffff16610d9d82610a1a565b73ffffffffffffffffffffffffffffffffffffffff1614151515610e29576040517f08c379a00000000000000000000000000000000000000000000000000000000081526004018080602001828103825260108152602001807f496e76616c696420616464726573732e0000000000000000000000000000000081525060200191505060405180910390fd5b610e3283610a1a565b91508173ffffffffffffffffffffffffffffffffffffffff1663fa89401a336040518263ffffffff167c0100000000000000000000000000000000000000000000000000000000028152600401808273ffffffffffffffffffffffffffffffffffffffff1673ffffffffffffffffffffffffffffffffffffffff168152602001915050600060405180830381600087803b158015610ecf57600080fd5b505af1158015610ee3573d6000803e3d6000fd5b505050505050505600a165627a7a723058200e628cf71d200dd0a84cce1bc1496ecc8318c9ab959cc99f4846f66a9ad308190029",
  "source": "pragma solidity ^0.4.24;\n\nimport \"./Factory.sol\";\n\ncontract Dashboard {\n\n    Factory public database;\n    uint public bidCount;\n\n    constructor(address _factorAddr) public {\n        database = Factory(_factorAddr);\n    }\n\n    modifier validateAddress(uint _id) {\n        require(getBidAddress(_id) != address(0), \"Invalid address.\");\n        _;\n    }\n\n    function getBidAddress(uint _id) public view returns (address) {\n        return database.getBidInfo(_id);\n    }\n\n    function newBid(string _name, uint _duration, address _beneficiary, string _description, string _url)  public {\n        database.newBid(_name, _duration, _beneficiary, _description, _url);\n        bidCount++;\n    }\n\n    function viewCurrentBid(uint _id) public validateAddress(_id) view returns (string, uint, address, string, string, uint, uint) {\n        Bid c = Bid(getBidAddress(_id));\n        return c.bidDetails();\n    }\n\n    function makeBid(uint _id)  public payable validateAddress(_id) {\n        require(msg.value > 0, \"New bid needs to be greater than zero.\");\n        Bid c = Bid(getBidAddress(_id));\n        c.addBid.value(msg.value);\n    }\n\n    function getRefund(uint _id) public validateAddress(_id) {\n        Bid c = Bid(getBidAddress(_id));\n        c.refund(msg.sender);\n    }\n\n    function pushPayout(uint _id) public validateAddress(_id) {\n        Bid c = Bid(getBidAddress(_id));\n        c.payout();\n    }\n}\n",
  "sourcePath": "/home/mauman/Documents/Master/Course/bidchain/contracts/Dashboard.sol",
  "compiler": {
    "name": "solc",
    "version": "0.4.24+commit.e67f0147.Emscripten.clang"
  },
  "schemaVersion": "2.0.1",
  "updatedAt": "2018-09-05T20:28:08.512Z"
}