{
  "contractName": "Dashboard",
  "abi": [
    {
      "constant": true,
      "inputs": [],
      "name": "database",
      "outputs": [
        {
          "name": "",
          "type": "address"
        }
      ],
      "payable": false,
      "stateMutability": "view",
      "type": "function"
    },
    {
      "constant": true,
      "inputs": [],
      "name": "bidCount",
      "outputs": [
        {
          "name": "",
          "type": "uint256"
        }
      ],
      "payable": false,
      "stateMutability": "view",
      "type": "function"
    },
    {
      "inputs": [
        {
          "name": "_factorAddr",
          "type": "address"
        }
      ],
      "payable": false,
      "stateMutability": "nonpayable",
      "type": "constructor"
    },
    {
      "constant": true,
      "inputs": [
        {
          "name": "_id",
          "type": "uint256"
        }
      ],
      "name": "getBidAddress",
      "outputs": [
        {
          "name": "",
          "type": "address"
        }
      ],
      "payable": false,
      "stateMutability": "view",
      "type": "function"
    },
    {
      "constant": false,
      "inputs": [
        {
          "name": "_name",
          "type": "string"
        },
        {
          "name": "_duration",
          "type": "uint256"
        },
        {
          "name": "_beneficiary",
          "type": "address"
        },
        {
          "name": "_description",
          "type": "string"
        },
        {
          "name": "_url",
          "type": "string"
        }
      ],
      "name": "newBid",
      "outputs": [],
      "payable": false,
      "stateMutability": "nonpayable",
      "type": "function"
    },
    {
      "constant": true,
      "inputs": [
        {
          "name": "_id",
          "type": "uint256"
        }
      ],
      "name": "viewCurrentBid",
      "outputs": [
        {
          "name": "",
          "type": "string"
        },
        {
          "name": "",
          "type": "uint256"
        },
        {
          "name": "",
          "type": "address"
        },
        {
          "name": "",
          "type": "string"
        },
        {
          "name": "",
          "type": "string"
        },
        {
          "name": "",
          "type": "uint256"
        },
        {
          "name": "",
          "type": "uint256"
        }
      ],
      "payable": false,
      "stateMutability": "view",
      "type": "function"
    },
    {
      "constant": false,
      "inputs": [
        {
          "name": "_id",
          "type": "uint256"
        }
      ],
      "name": "makeBid",
      "outputs": [],
      "payable": true,
      "stateMutability": "payable",
      "type": "function"
    },
    {
      "constant": false,
      "inputs": [
        {
          "name": "_id",
          "type": "uint256"
        }
      ],
      "name": "getRefund",
      "outputs": [],
      "payable": false,
      "stateMutability": "nonpayable",
      "type": "function"
    },
    {
      "constant": false,
      "inputs": [
        {
          "name": "_id",
          "type": "uint256"
        }
      ],
      "name": "pushPayout",
      "outputs": [],
      "payable": false,
      "stateMutability": "nonpayable",
      "type": "function"
    },
    {
      "constant": true,
      "inputs": [],
      "name": "contratNow",
      "outputs": [
        {
          "name": "",
          "type": "uint256"
        }
      ],
      "payable": false,
      "stateMutability": "view",
      "type": "function"
    }
  ],
  "bytecode": "0x608060405234801561001057600080fd5b5060405160208061108d83398101806040528101908080519060200190929190505050806000806101000a81548173ffffffffffffffffffffffffffffffffffffffff021916908373ffffffffffffffffffffffffffffffffffffffff1602179055505061100a806100836000396000f300608060405260043610610099576000357c0100000000000000000000000000000000000000000000000000000000900463ffffffff168063109793651461009e578063175b2304146100cb578063269e87d4146100eb578063648a8c0d146102b157806369f632e2146102dc578063713b563f14610349578063b40a5627146103a0578063c02b401e146103cb578063d2f0be99146104ea575b600080fd5b3480156100aa57600080fd5b506100c960048036038101908080359060200190929190505050610517565b005b6100e960048036038101908080359060200190929190505050610653565b005b3480156100f757600080fd5b5061011660048036038101908080359060200190929190505050610865565b60405180806020018881526020018773ffffffffffffffffffffffffffffffffffffffff1673ffffffffffffffffffffffffffffffffffffffff168152602001806020018060200186815260200185815260200184810384528b818151815260200191508051906020019080838360005b838110156101a2578082015181840152602081019050610187565b50505050905090810190601f1680156101cf5780820380516001836020036101000a031916815260200191505b50848103835288818151815260200191508051906020019080838360005b838110156102085780820151818401526020810190506101ed565b50505050905090810190601f1680156102355780820380516001836020036101000a031916815260200191505b50848103825287818151815260200191508051906020019080838360005b8381101561026e578082015181840152602081019050610253565b50505050905090810190601f16801561029b5780820380516001836020036101000a031916815260200191505b509a505050505050505050505060405180910390f35b3480156102bd57600080fd5b506102c6610b04565b6040518082815260200191505060405180910390f35b3480156102e857600080fd5b5061030760048036038101908080359060200190929190505050610b0c565b604051808273ffffffffffffffffffffffffffffffffffffffff1673ffffffffffffffffffffffffffffffffffffffff16815260200191505060405180910390f35b34801561035557600080fd5b5061035e610be0565b604051808273ffffffffffffffffffffffffffffffffffffffff1673ffffffffffffffffffffffffffffffffffffffff16815260200191505060405180910390f35b3480156103ac57600080fd5b506103b5610c05565b6040518082815260200191505060405180910390f35b3480156103d757600080fd5b506104e8600480360381019080803590602001908201803590602001908080601f016020809104026020016040519081016040528093929190818152602001838380828437820191505050505050919291929080359060200190929190803573ffffffffffffffffffffffffffffffffffffffff169060200190929190803590602001908201803590602001908080601f0160208091040260200160405190810160405280939291908181526020018383808284378201915050505050509192919290803590602001908201803590602001908080601f0160208091040260200160405190810160405280939291908181526020018383808284378201915050505050509192919290505050610c0b565b005b3480156104f657600080fd5b5061051560048036038101908080359060200190929190505050610e6b565b005b600081600073ffffffffffffffffffffffffffffffffffffffff1661053b82610b0c565b73ffffffffffffffffffffffffffffffffffffffff16141515156105c7576040517f08c379a00000000000000000000000000000000000000000000000000000000081526004018080602001828103825260108152602001807f496e76616c696420616464726573732e0000000000000000000000000000000081525060200191505060405180910390fd5b6105d083610b0c565b91508173ffffffffffffffffffffffffffffffffffffffff166363bd1d4a6040518163ffffffff167c0100000000000000000000000000000000000000000000000000000000028152600401600060405180830381600087803b15801561063657600080fd5b505af115801561064a573d6000803e3d6000fd5b50505050505050565b600081600073ffffffffffffffffffffffffffffffffffffffff1661067782610b0c565b73ffffffffffffffffffffffffffffffffffffffff1614151515610703576040517f08c379a00000000000000000000000000000000000000000000000000000000081526004018080602001828103825260108152602001807f496e76616c696420616464726573732e0000000000000000000000000000000081525060200191505060405180910390fd5b6000341115156107a1576040517f08c379a00000000000000000000000000000000000000000000000000000000081526004018080602001828103825260268152602001807f4e657720626964206e6565647320746f2062652067726561746572207468616e81526020017f207a65726f2e000000000000000000000000000000000000000000000000000081525060400191505060405180910390fd5b6107aa83610b0c565b91508173ffffffffffffffffffffffffffffffffffffffff1663cb7c85fc34336040518363ffffffff167c0100000000000000000000000000000000000000000000000000000000028152600401808273ffffffffffffffffffffffffffffffffffffffff1673ffffffffffffffffffffffffffffffffffffffff1681526020019150506000604051808303818588803b15801561084757600080fd5b505af115801561085b573d6000803e3d6000fd5b5050505050505050565b6060600080606080600080600088600073ffffffffffffffffffffffffffffffffffffffff1661089482610b0c565b73ffffffffffffffffffffffffffffffffffffffff1614151515610920576040517f08c379a00000000000000000000000000000000000000000000000000000000081526004018080602001828103825260108152602001807f496e76616c696420616464726573732e0000000000000000000000000000000081525060200191505060405180910390fd5b6109298a610b0c565b91508173ffffffffffffffffffffffffffffffffffffffff16634c6d299c6040518163ffffffff167c0100000000000000000000000000000000000000000000000000000000028152600401600060405180830381600087803b15801561098f57600080fd5b505af11580156109a3573d6000803e3d6000fd5b505050506040513d6000823e3d601f19601f8201168201806040525060e08110156109cd57600080fd5b8101908080516401000000008111156109e557600080fd5b828101905060208101848111156109fb57600080fd5b8151856001820283011164010000000082111715610a1857600080fd5b505092919060200180519060200190929190805190602001909291908051640100000000811115610a4857600080fd5b82810190506020810184811115610a5e57600080fd5b8151856001820283011164010000000082111715610a7b57600080fd5b50509291906020018051640100000000811115610a9757600080fd5b82810190506020810184811115610aad57600080fd5b8151856001820283011164010000000082111715610aca57600080fd5b5050929190602001805190602001909291908051906020019092919050505098509850985098509850985098505050919395979092949650565b600042905090565b60008060009054906101000a900473ffffffffffffffffffffffffffffffffffffffff1673ffffffffffffffffffffffffffffffffffffffff16632201db31836040518263ffffffff167c010000000000000000000000000000000000000000000000000000000002815260040180828152602001915050602060405180830381600087803b158015610b9e57600080fd5b505af1158015610bb2573d6000803e3d6000fd5b505050506040513d6020811015610bc857600080fd5b81019080805190602001909291905050509050919050565b6000809054906101000a900473ffffffffffffffffffffffffffffffffffffffff1681565b60015481565b6000809054906101000a900473ffffffffffffffffffffffffffffffffffffffff1673ffffffffffffffffffffffffffffffffffffffff1663c02b401e86868686866040518663ffffffff167c010000000000000000000000000000000000000000000000000000000002815260040180806020018681526020018573ffffffffffffffffffffffffffffffffffffffff1673ffffffffffffffffffffffffffffffffffffffff1681526020018060200180602001848103845289818151815260200191508051906020019080838360005b83811015610cf8578082015181840152602081019050610cdd565b50505050905090810190601f168015610d255780820380516001836020036101000a031916815260200191505b50848103835286818151815260200191508051906020019080838360005b83811015610d5e578082015181840152602081019050610d43565b50505050905090810190601f168015610d8b5780820380516001836020036101000a031916815260200191505b50848103825285818151815260200191508051906020019080838360005b83811015610dc4578082015181840152602081019050610da9565b50505050905090810190601f168015610df15780820380516001836020036101000a031916815260200191505b5098505050505050505050602060405180830381600087803b158015610e1657600080fd5b505af1158015610e2a573d6000803e3d6000fd5b505050506040513d6020811015610e4057600080fd5b8101908080519060200190929190505050506001600081548092919060010191905055505050505050565b600081600073ffffffffffffffffffffffffffffffffffffffff16610e8f82610b0c565b73ffffffffffffffffffffffffffffffffffffffff1614151515610f1b576040517f08c379a00000000000000000000000000000000000000000000000000000000081526004018080602001828103825260108152602001807f496e76616c696420616464726573732e0000000000000000000000000000000081525060200191505060405180910390fd5b610f2483610b0c565b91508173ffffffffffffffffffffffffffffffffffffffff1663fa89401a336040518263ffffffff167c0100000000000000000000000000000000000000000000000000000000028152600401808273ffffffffffffffffffffffffffffffffffffffff1673ffffffffffffffffffffffffffffffffffffffff168152602001915050600060405180830381600087803b158015610fc157600080fd5b505af1158015610fd5573d6000803e3d6000fd5b505050505050505600a165627a7a72305820a7b68c5f8ac5d9e0a745dacce124874b728a296bcfb49dffd0c08ae1451ef1f90029",
  "source": "pragma solidity ^0.4.24;\n\nimport \"./Factory.sol\";\n\ncontract Dashboard {\n\n    Factory public database;\n    uint public bidCount;\n\n    constructor(address _factorAddr) public {\n        database = Factory(_factorAddr);\n    }\n\n    modifier validateAddress(uint _id) {\n        require(getBidAddress(_id) != address(0), \"Invalid address.\");\n        _;\n    }\n\n    function getBidAddress(uint _id) public view returns (address) {\n        return database.getBidInfo(_id);\n    }\n\n    function newBid(string _name, uint _duration, address _beneficiary, string _description, string _url)  public {\n        database.newBid(_name, _duration, _beneficiary, _description, _url);\n        bidCount++;\n    }\n\n    function viewCurrentBid(uint _id) public validateAddress(_id) view returns (string, uint, address, string, string, uint, uint) {\n        Bid bid = Bid(getBidAddress(_id));\n        return bid.bidDetails();\n    }\n\n    function makeBid(uint _id)  public payable validateAddress(_id) {\n        require(msg.value > 0, \"New bid needs to be greater than zero.\");\n        Bid bid = Bid(getBidAddress(_id));\n        bid.addBid.value(msg.value)(msg.sender);\n    }\n\n    function getRefund(uint _id) public validateAddress(_id) {\n        Bid bid = Bid(getBidAddress(_id));\n        bid.refund(msg.sender);\n    }\n\n    function pushPayout(uint _id) public validateAddress(_id) {\n        Bid bid = Bid(getBidAddress(_id));\n        bid.payout();\n    }\n\n    function contratNow() public view returns(uint){\n        return now;\n    }\n}\n",
  "sourcePath": "/home/mauman/Documents/Master/Course/bidchain/contracts/Dashboard.sol",
  "compiler": {
    "name": "solc",
    "version": "0.4.24+commit.e67f0147.Emscripten.clang"
  },
  "schemaVersion": "2.0.1",
  "updatedAt": "2018-09-06T20:05:53.054Z"
}