{
  "contractName": "Factory",
  "abi": [
    {
      "constant": true,
      "inputs": [],
      "name": "currentId",
      "outputs": [
        {
          "name": "",
          "type": "uint256"
        }
      ],
      "payable": false,
      "stateMutability": "view",
      "type": "function"
    },
    {
      "anonymous": false,
      "inputs": [
        {
          "indexed": false,
          "name": "_bidAddress",
          "type": "address"
        }
      ],
      "name": "NewBid",
      "type": "event"
    },
    {
      "constant": false,
      "inputs": [
        {
          "name": "_name",
          "type": "string"
        },
        {
          "name": "_duration",
          "type": "uint256"
        },
        {
          "name": "_beneficiary",
          "type": "address"
        },
        {
          "name": "_description",
          "type": "string"
        },
        {
          "name": "_url",
          "type": "string"
        }
      ],
      "name": "newBid",
      "outputs": [
        {
          "name": "",
          "type": "uint256"
        }
      ],
      "payable": false,
      "stateMutability": "nonpayable",
      "type": "function"
    },
    {
      "constant": true,
      "inputs": [
        {
          "name": "_id",
          "type": "uint256"
        }
      ],
      "name": "getBidInfo",
      "outputs": [
        {
          "name": "",
          "type": "address"
        }
      ],
      "payable": false,
      "stateMutability": "view",
      "type": "function"
    }
  ],
  "bytecode": "0x608060405234801561001057600080fd5b506115ef806100206000396000f300608060405260043610610057576000357c0100000000000000000000000000000000000000000000000000000000900463ffffffff1680632201db311461005c578063c02b401e146100c9578063e00dd161146101fc575b600080fd5b34801561006857600080fd5b5061008760048036038101908080359060200190929190505050610227565b604051808273ffffffffffffffffffffffffffffffffffffffff1673ffffffffffffffffffffffffffffffffffffffff16815260200191505060405180910390f35b3480156100d557600080fd5b506101e6600480360381019080803590602001908201803590602001908080601f016020809104026020016040519081016040528093929190818152602001838380828437820191505050505050919291929080359060200190929190803573ffffffffffffffffffffffffffffffffffffffff169060200190929190803590602001908201803590602001908080601f0160208091040260200160405190810160405280939291908181526020018383808284378201915050505050509192919290803590602001908201803590602001908080601f0160208091040260200160405190810160405280939291908181526020018383808284378201915050505050509192919290505050610264565b6040518082815260200191505060405180910390f35b34801561020857600080fd5b506102116104ef565b6040518082815260200191505060405180910390f35b60006001600083815260200190815260200160002060009054906101000a900473ffffffffffffffffffffffffffffffffffffffff169050919050565b600080868642018686866102766104f5565b80806020018681526020018573ffffffffffffffffffffffffffffffffffffffff1673ffffffffffffffffffffffffffffffffffffffff1681526020018060200180602001848103845289818151815260200191508051906020019080838360005b838110156102f35780820151818401526020810190506102d8565b50505050905090810190601f1680156103205780820380516001836020036101000a031916815260200191505b50848103835286818151815260200191508051906020019080838360005b8381101561035957808201518184015260208101905061033e565b50505050905090810190601f1680156103865780820380516001836020036101000a031916815260200191505b50848103825285818151815260200191508051906020019080838360005b838110156103bf5780820151818401526020810190506103a4565b50505050905090810190601f1680156103ec5780820380516001836020036101000a031916815260200191505b5098505050505050505050604051809103906000f080158015610413573d6000803e3d6000fd5b50905080600160008054815260200190815260200160002060006101000a81548173ffffffffffffffffffffffffffffffffffffffff021916908373ffffffffffffffffffffffffffffffffffffffff1602179055507f1c10a18fffb6543afbf4d75ce6f3cfa56c73dd74e56fdc8c9474f30fc271238681604051808273ffffffffffffffffffffffffffffffffffffffff1673ffffffffffffffffffffffffffffffffffffffff16815260200191505060405180910390a1600080815480929190600101919050555060016000540391505095945050505050565b60005481565b6040516110be8061050683390190560060806040523480156200001157600080fd5b50604051620010be380380620010be833981018060405281019080805182019291906020018051906020019092919080519060200190929190805182019291906020018051820192919050505084600390805190602001906200007692919062000123565b5083420160028190555082600160006101000a81548173ffffffffffffffffffffffffffffffffffffffff021916908373ffffffffffffffffffffffffffffffffffffffff1602179055506000600860006101000a81548160ff02191690836001811115620000e157fe5b02179055508160099080519060200190620000fe92919062000123565b5080600a90805190602001906200011792919062000123565b505050505050620001d2565b828054600181600116156101000203166002900490600052602060002090601f016020900481019282601f106200016657805160ff191683800117855562000197565b8280016001018555821562000197579182015b828111156200019657825182559160200191906001019062000179565b5b509050620001a69190620001aa565b5090565b620001cf91905b80821115620001cb576000816000905550600101620001b1565b5090565b90565b610edc80620001e26000396000f30060806040526004361061006d576000357c0100000000000000000000000000000000000000000000000000000000900463ffffffff1680632f2770db146100725780634c6d299c1461008957806363bd1d4a14610239578063782a5c8214610250578063fa89401a1461025a575b600080fd5b34801561007e57600080fd5b5061008761029d565b005b34801561009557600080fd5b5061009e610413565b60405180806020018881526020018773ffffffffffffffffffffffffffffffffffffffff1673ffffffffffffffffffffffffffffffffffffffff168152602001806020018060200186815260200185815260200184810384528b818151815260200191508051906020019080838360005b8381101561012a57808201518184015260208101905061010f565b50505050905090810190601f1680156101575780820380516001836020036101000a031916815260200191505b50848103835288818151815260200191508051906020019080838360005b83811015610190578082015181840152602081019050610175565b50505050905090810190601f1680156101bd5780820380516001836020036101000a031916815260200191505b50848103825287818151815260200191508051906020019080838360005b838110156101f65780820151818401526020810190506101db565b50505050905090810190601f1680156102235780820380516001836020036101000a031916815260200191505b509a505050505050505050505060405180910390f35b34801561024557600080fd5b5061024e61063e565b005b6102586107d7565b005b34801561026657600080fd5b5061029b600480360381019080803573ffffffffffffffffffffffffffffffffffffffff169060200190929190505050610bc7565b005b60025442111515610316576040517f08c379a00000000000000000000000000000000000000000000000000000000081526004018080602001828103825260208152602001807f426964206861736e277420726561636865642074686520646561646c696e652e81525060200191505060405180910390fd5b60018081111561032257fe5b600860009054906101000a900460ff16600181111561033d57fe5b1415156103d8576040517f08c379a00000000000000000000000000000000000000000000000000000000081526004018080602001828103825260338152602001807f426964206e6565647320746f20626520706179656420746f20746865206f776e81526020017f6572206265666f72652064657374727563742e0000000000000000000000000081525060400191505060405180910390fd5b600160009054906101000a900473ffffffffffffffffffffffffffffffffffffffff1673ffffffffffffffffffffffffffffffffffffffff16ff5b60606000806060806000806003600254600160009054906101000a900473ffffffffffffffffffffffffffffffffffffffff166009600a600754600580549050868054600181600116156101000203166002900480601f0160208091040260200160405190810160405280929190818152602001828054600181600116156101000203166002900480156104e85780601f106104bd576101008083540402835291602001916104e8565b820191906000526020600020905b8154815290600101906020018083116104cb57829003601f168201915b50505050509650838054600181600116156101000203166002900480601f0160208091040260200160405190810160405280929190818152602001828054600181600116156101000203166002900480156105845780601f1061055957610100808354040283529160200191610584565b820191906000526020600020905b81548152906001019060200180831161056757829003601f168201915b50505050509350828054600181600116156101000203166002900480601f0160208091040260200160405190810160405280929190818152602001828054600181600116156101000203166002900480156106205780601f106105f557610100808354040283529160200191610620565b820191906000526020600020905b81548152906001019060200180831161060357829003601f168201915b50505050509250965096509650965096509650965090919293949596565b600254421115156106b7576040517f08c379a00000000000000000000000000000000000000000000000000000000081526004018080602001828103825260208152602001807f426964206861736e277420726561636865642074686520646561646c696e652e81525060200191505060405180910390fd5b60003073ffffffffffffffffffffffffffffffffffffffff1631111515610746576040517f08c379a000000000000000000000000000000000000000000000000000000000815260040180806020018281038252601d8152602001807f42696420646f65736e2774206861766520616e792062616c616e63652e00000081525060200191505060405180910390fd5b600160009054906101000a900473ffffffffffffffffffffffffffffffffffffffff1673ffffffffffffffffffffffffffffffffffffffff166108fc6007549081150290604051600060405180830381858888f193505050501580156107b0573d6000803e3d6000fd5b506001600860006101000a81548160ff021916908360018111156107d057fe5b0217905550565b600061082b34600460003273ffffffffffffffffffffffffffffffffffffffff1673ffffffffffffffffffffffffffffffffffffffff16815260200190815260200160002054610e8f90919063ffffffff16565b9050600754811115156108cc576040517f08c379a000000000000000000000000000000000000000000000000000000000815260040180806020018281038252602e8152602001807f546f74616c20626964206e6565647320746f206265206869676865722074686181526020017f6e207468652063757272656e742e00000000000000000000000000000000000081525060400191505060405180910390fd5b600160009054906101000a900473ffffffffffffffffffffffffffffffffffffffff1673ffffffffffffffffffffffffffffffffffffffff163273ffffffffffffffffffffffffffffffffffffffff1614151515610992576040517f08c379a000000000000000000000000000000000000000000000000000000000815260040180806020018281038252601f8152602001807f42656e65666963696172792063616e6e6f742062652061206269646465722e0081525060200191505060405180910390fd5b8060078190555032600660006101000a81548173ffffffffffffffffffffffffffffffffffffffff021916908373ffffffffffffffffffffffffffffffffffffffff160217905550600060046000600660009054906101000a900473ffffffffffffffffffffffffffffffffffffffff1673ffffffffffffffffffffffffffffffffffffffff1673ffffffffffffffffffffffffffffffffffffffff168152602001908152602001600020541415610acd576005600660009054906101000a900473ffffffffffffffffffffffffffffffffffffffff1690806001815401808255809150509060018203906000526020600020016000909192909190916101000a81548173ffffffffffffffffffffffffffffffffffffffff021916908373ffffffffffffffffffffffffffffffffffffffff160217905550505b60075460046000600660009054906101000a900473ffffffffffffffffffffffffffffffffffffffff1673ffffffffffffffffffffffffffffffffffffffff1673ffffffffffffffffffffffffffffffffffffffff168152602001908152602001600020819055507fb2807a897418df107fcb8f1c4fbf286b5428f7df052d77dd2c66cf3de78dc33a600660009054906101000a900473ffffffffffffffffffffffffffffffffffffffff16600754604051808373ffffffffffffffffffffffffffffffffffffffff1673ffffffffffffffffffffffffffffffffffffffff1681526020018281526020019250505060405180910390a150565b600060025442111515610c42576040517f08c379a00000000000000000000000000000000000000000000000000000000081526004018080602001828103825260208152602001807f426964206861736e277420726561636865642074686520646561646c696e652e81525060200191505060405180910390fd5b60003073ffffffffffffffffffffffffffffffffffffffff1631111515610cd1576040517f08c379a000000000000000000000000000000000000000000000000000000000815260040180806020018281038252601d8152602001807f42696420646f65736e2774206861766520616e792062616c616e63652e00000081525060200191505060405180910390fd5b600660009054906101000a900473ffffffffffffffffffffffffffffffffffffffff1673ffffffffffffffffffffffffffffffffffffffff168273ffffffffffffffffffffffffffffffffffffffff1614151515610dbd576040517f08c379a00000000000000000000000000000000000000000000000000000000081526004018080602001828103825260228152602001807f4d6178696d756d206269646465722063616e6e6f7420626520726566756e646581526020017f642e00000000000000000000000000000000000000000000000000000000000081525060400191505060405180910390fd5b600460008373ffffffffffffffffffffffffffffffffffffffff1673ffffffffffffffffffffffffffffffffffffffff1681526020019081526020016000205490506000600460008473ffffffffffffffffffffffffffffffffffffffff1673ffffffffffffffffffffffffffffffffffffffff168152602001908152602001600020819055508173ffffffffffffffffffffffffffffffffffffffff166108fc829081150290604051600060405180830381858888f19350505050158015610e8a573d6000803e3d6000fd5b505050565b6000808284019050838110151515610ea657600080fd5b80915050929150505600a165627a7a72305820da743409e6220fb07e58fa913c6b3f048c6ab13865bcb2aa6f4fe56d41a17b910029a165627a7a7230582035abc6498a238f0c47a8e21d0476b449c859a61488a5591a00bac8e7d381ab780029",
  "source": "pragma solidity ^0.4.24;\n\nimport \"./Bid.sol\";\n\ncontract Factory{\n\n    uint public currentId;\n\n    event NewBid(address _bidAddress);\n\n    mapping(uint => address) private bidInfo;\n\n    function newBid(string _name, uint _duration, address _beneficiary, string _description, string _url) public returns (uint) {\n        Bid c = new Bid(_name, now + _duration, _beneficiary, _description, _url);\n        bidInfo[currentId] = c;\n        emit NewBid(c);\n        currentId++;\n        return currentId-1;\n    }\n\n    function getBidInfo(uint _id) public view returns (address) {\n        return bidInfo[_id];        \n    }\n}\n",
  "sourcePath": "/home/mauman/Documents/Master/Course/bidchain/contracts/Factory.sol",
  "compiler": {
    "name": "solc",
    "version": "0.4.24+commit.e67f0147.Emscripten.clang"
  },
  "schemaVersion": "2.0.1",
  "updatedAt": "2018-09-05T20:28:08.513Z"
}